{
    "_format": "hh-sol-artifact-1",
    "contractName": "AiNft",
    "sourceName": "contracts/AiNft.sol",
    "abi": [
        {
            "inputs": [],
            "stateMutability": "nonpayable",
            "type": "constructor"
        },
        {
            "anonymous": false,
            "inputs": [
                {
                    "indexed": true,
                    "internalType": "address",
                    "name": "owner",
                    "type": "address"
                },
                {
                    "indexed": true,
                    "internalType": "address",
                    "name": "approved",
                    "type": "address"
                },
                {
                    "indexed": true,
                    "internalType": "uint256",
                    "name": "tokenId",
                    "type": "uint256"
                }
            ],
            "name": "Approval",
            "type": "event"
        },
        {
            "anonymous": false,
            "inputs": [
                {
                    "indexed": true,
                    "internalType": "address",
                    "name": "owner",
                    "type": "address"
                },
                {
                    "indexed": true,
                    "internalType": "address",
                    "name": "operator",
                    "type": "address"
                },
                {
                    "indexed": false,
                    "internalType": "bool",
                    "name": "approved",
                    "type": "bool"
                }
            ],
            "name": "ApprovalForAll",
            "type": "event"
        },
        {
            "anonymous": false,
            "inputs": [
                {
                    "indexed": true,
                    "internalType": "address",
                    "name": "minter",
                    "type": "address"
                },
                {
                    "indexed": false,
                    "internalType": "uint256",
                    "name": "tokenId",
                    "type": "uint256"
                }
            ],
            "name": "NewAiNftMinted",
            "type": "event"
        },
        {
            "anonymous": false,
            "inputs": [
                {
                    "indexed": true,
                    "internalType": "address",
                    "name": "previousOwner",
                    "type": "address"
                },
                {
                    "indexed": true,
                    "internalType": "address",
                    "name": "newOwner",
                    "type": "address"
                }
            ],
            "name": "OwnershipTransferred",
            "type": "event"
        },
        {
            "anonymous": false,
            "inputs": [
                {
                    "indexed": false,
                    "internalType": "address",
                    "name": "account",
                    "type": "address"
                }
            ],
            "name": "Paused",
            "type": "event"
        },
        {
            "anonymous": false,
            "inputs": [
                {
                    "indexed": true,
                    "internalType": "address",
                    "name": "from",
                    "type": "address"
                },
                {
                    "indexed": true,
                    "internalType": "address",
                    "name": "to",
                    "type": "address"
                },
                {
                    "indexed": true,
                    "internalType": "uint256",
                    "name": "tokenId",
                    "type": "uint256"
                }
            ],
            "name": "Transfer",
            "type": "event"
        },
        {
            "anonymous": false,
            "inputs": [
                {
                    "indexed": false,
                    "internalType": "address",
                    "name": "account",
                    "type": "address"
                }
            ],
            "name": "Unpaused",
            "type": "event"
        },
        {
            "inputs": [],
            "name": "MAX_MINT_PER_WALLET",
            "outputs": [
                {
                    "internalType": "uint256",
                    "name": "",
                    "type": "uint256"
                }
            ],
            "stateMutability": "view",
            "type": "function"
        },
        {
            "inputs": [
                {
                    "internalType": "address",
                    "name": "to",
                    "type": "address"
                },
                {
                    "internalType": "uint256",
                    "name": "tokenId",
                    "type": "uint256"
                }
            ],
            "name": "approve",
            "outputs": [],
            "stateMutability": "nonpayable",
            "type": "function"
        },
        {
            "inputs": [
                {
                    "internalType": "address",
                    "name": "owner",
                    "type": "address"
                }
            ],
            "name": "balanceOf",
            "outputs": [
                {
                    "internalType": "uint256",
                    "name": "",
                    "type": "uint256"
                }
            ],
            "stateMutability": "view",
            "type": "function"
        },
        {
            "inputs": [
                {
                    "internalType": "uint256",
                    "name": "tokenId",
                    "type": "uint256"
                }
            ],
            "name": "getApproved",
            "outputs": [
                {
                    "internalType": "address",
                    "name": "",
                    "type": "address"
                }
            ],
            "stateMutability": "view",
            "type": "function"
        },
        {
            "inputs": [],
            "name": "getCurrtenPirateApeNftAmoundMinted",
            "outputs": [
                {
                    "internalType": "uint256",
                    "name": "",
                    "type": "uint256"
                }
            ],
            "stateMutability": "view",
            "type": "function"
        },
        {
            "inputs": [
                {
                    "internalType": "address",
                    "name": "_senderAddress",
                    "type": "address"
                }
            ],
            "name": "getNumberOfAiNftsOwned",
            "outputs": [
                {
                    "internalType": "uint256",
                    "name": "",
                    "type": "uint256"
                }
            ],
            "stateMutability": "view",
            "type": "function"
        },
        {
            "inputs": [
                {
                    "internalType": "address",
                    "name": "owner",
                    "type": "address"
                },
                {
                    "internalType": "address",
                    "name": "operator",
                    "type": "address"
                }
            ],
            "name": "isApprovedForAll",
            "outputs": [
                {
                    "internalType": "bool",
                    "name": "",
                    "type": "bool"
                }
            ],
            "stateMutability": "view",
            "type": "function"
        },
        {
            "inputs": [],
            "name": "max_supply",
            "outputs": [
                {
                    "internalType": "uint256",
                    "name": "",
                    "type": "uint256"
                }
            ],
            "stateMutability": "view",
            "type": "function"
        },
        {
            "inputs": [],
            "name": "name",
            "outputs": [
                {
                    "internalType": "string",
                    "name": "",
                    "type": "string"
                }
            ],
            "stateMutability": "view",
            "type": "function"
        },
        {
            "inputs": [],
            "name": "owner",
            "outputs": [
                {
                    "internalType": "address",
                    "name": "",
                    "type": "address"
                }
            ],
            "stateMutability": "view",
            "type": "function"
        },
        {
            "inputs": [
                {
                    "internalType": "uint256",
                    "name": "tokenId",
                    "type": "uint256"
                }
            ],
            "name": "ownerOf",
            "outputs": [
                {
                    "internalType": "address",
                    "name": "",
                    "type": "address"
                }
            ],
            "stateMutability": "view",
            "type": "function"
        },
        {
            "inputs": [],
            "name": "pause",
            "outputs": [],
            "stateMutability": "nonpayable",
            "type": "function"
        },
        {
            "inputs": [],
            "name": "paused",
            "outputs": [
                {
                    "internalType": "bool",
                    "name": "",
                    "type": "bool"
                }
            ],
            "stateMutability": "view",
            "type": "function"
        },
        {
            "inputs": [],
            "name": "renounceOwnership",
            "outputs": [],
            "stateMutability": "nonpayable",
            "type": "function"
        },
        {
            "inputs": [
                {
                    "internalType": "string",
                    "name": "uri",
                    "type": "string"
                }
            ],
            "name": "safeMint",
            "outputs": [],
            "stateMutability": "nonpayable",
            "type": "function"
        },
        {
            "inputs": [
                {
                    "internalType": "address",
                    "name": "from",
                    "type": "address"
                },
                {
                    "internalType": "address",
                    "name": "to",
                    "type": "address"
                },
                {
                    "internalType": "uint256",
                    "name": "tokenId",
                    "type": "uint256"
                }
            ],
            "name": "safeTransferFrom",
            "outputs": [],
            "stateMutability": "nonpayable",
            "type": "function"
        },
        {
            "inputs": [
                {
                    "internalType": "address",
                    "name": "from",
                    "type": "address"
                },
                {
                    "internalType": "address",
                    "name": "to",
                    "type": "address"
                },
                {
                    "internalType": "uint256",
                    "name": "tokenId",
                    "type": "uint256"
                },
                {
                    "internalType": "bytes",
                    "name": "data",
                    "type": "bytes"
                }
            ],
            "name": "safeTransferFrom",
            "outputs": [],
            "stateMutability": "nonpayable",
            "type": "function"
        },
        {
            "inputs": [
                {
                    "internalType": "address",
                    "name": "operator",
                    "type": "address"
                },
                {
                    "internalType": "bool",
                    "name": "approved",
                    "type": "bool"
                }
            ],
            "name": "setApprovalForAll",
            "outputs": [],
            "stateMutability": "nonpayable",
            "type": "function"
        },
        {
            "inputs": [
                {
                    "internalType": "uint256",
                    "name": "_newTotalSupply",
                    "type": "uint256"
                }
            ],
            "name": "setTotalSupply",
            "outputs": [],
            "stateMutability": "nonpayable",
            "type": "function"
        },
        {
            "inputs": [
                {
                    "internalType": "bytes4",
                    "name": "interfaceId",
                    "type": "bytes4"
                }
            ],
            "name": "supportsInterface",
            "outputs": [
                {
                    "internalType": "bool",
                    "name": "",
                    "type": "bool"
                }
            ],
            "stateMutability": "view",
            "type": "function"
        },
        {
            "inputs": [],
            "name": "symbol",
            "outputs": [
                {
                    "internalType": "string",
                    "name": "",
                    "type": "string"
                }
            ],
            "stateMutability": "view",
            "type": "function"
        },
        {
            "inputs": [
                {
                    "internalType": "uint256",
                    "name": "tokenId",
                    "type": "uint256"
                }
            ],
            "name": "tokenURI",
            "outputs": [
                {
                    "internalType": "string",
                    "name": "",
                    "type": "string"
                }
            ],
            "stateMutability": "view",
            "type": "function"
        },
        {
            "inputs": [
                {
                    "internalType": "address",
                    "name": "from",
                    "type": "address"
                },
                {
                    "internalType": "address",
                    "name": "to",
                    "type": "address"
                },
                {
                    "internalType": "uint256",
                    "name": "tokenId",
                    "type": "uint256"
                }
            ],
            "name": "transferFrom",
            "outputs": [],
            "stateMutability": "nonpayable",
            "type": "function"
        },
        {
            "inputs": [
                {
                    "internalType": "address",
                    "name": "newOwner",
                    "type": "address"
                }
            ],
            "name": "transferOwnership",
            "outputs": [],
            "stateMutability": "nonpayable",
            "type": "function"
        },
        {
            "inputs": [],
            "name": "unpause",
            "outputs": [],
            "stateMutability": "nonpayable",
            "type": "function"
        }
    ],
    "bytecode": "0x608060405260646009556005600a553480156200001b57600080fd5b506040518060400160405280600581526020017f41694e66740000000000000000000000000000000000000000000000000000008152506040518060400160405280600381526020017f41494e0000000000000000000000000000000000000000000000000000000000815250816000908162000099919062000437565b508060019081620000ab919062000437565b5050506000600760006101000a81548160ff021916908315150217905550620000e9620000dd620000ef60201b60201c565b620000f760201b60201c565b6200051e565b600033905090565b6000600760019054906101000a900473ffffffffffffffffffffffffffffffffffffffff16905081600760016101000a81548173ffffffffffffffffffffffffffffffffffffffff021916908373ffffffffffffffffffffffffffffffffffffffff1602179055508173ffffffffffffffffffffffffffffffffffffffff168173ffffffffffffffffffffffffffffffffffffffff167f8be0079c531659141344cd1fd0a4f28419497f9722a3daafe3b4186f6b6457e060405160405180910390a35050565b600081519050919050565b7f4e487b7100000000000000000000000000000000000000000000000000000000600052604160045260246000fd5b7f4e487b7100000000000000000000000000000000000000000000000000000000600052602260045260246000fd5b600060028204905060018216806200023f57607f821691505b602082108103620002555762000254620001f7565b5b50919050565b60008190508160005260206000209050919050565b60006020601f8301049050919050565b600082821b905092915050565b600060088302620002bf7fffffffffffffffffffffffffffffffffffffffffffffffffffffffffffffffff8262000280565b620002cb868362000280565b95508019841693508086168417925050509392505050565b6000819050919050565b6000819050919050565b600062000318620003126200030c84620002e3565b620002ed565b620002e3565b9050919050565b6000819050919050565b6200033483620002f7565b6200034c62000343826200031f565b8484546200028d565b825550505050565b600090565b6200036362000354565b6200037081848462000329565b505050565b5b8181101562000398576200038c60008262000359565b60018101905062000376565b5050565b601f821115620003e757620003b1816200025b565b620003bc8462000270565b81016020851015620003cc578190505b620003e4620003db8562000270565b83018262000375565b50505b505050565b600082821c905092915050565b60006200040c60001984600802620003ec565b1980831691505092915050565b6000620004278383620003f9565b9150826002028217905092915050565b6200044282620001bd565b67ffffffffffffffff8111156200045e576200045d620001c8565b5b6200046a825462000226565b620004778282856200039c565b600060209050601f831160018114620004af57600084156200049a578287015190505b620004a6858262000419565b86555062000516565b601f198416620004bf866200025b565b60005b82811015620004e957848901518255600182019150602085019450602081019050620004c2565b8683101562000509578489015162000505601f891682620003f9565b8355505b6001600288020188555050505b505050505050565b6136f0806200052e6000396000f3fe608060405234801561001057600080fd5b50600436106101735760003560e01c8063715018a6116100de578063a22cb46511610097578063c87b56dd11610071578063c87b56dd14610400578063e985e9c514610430578063f2fde38b14610460578063f7ea7a3d1461047c57610173565b8063a22cb465146103aa578063b19960e6146103c6578063b88d4fde146103e457610173565b8063715018a61461030c5780638456cb59146103165780638a333b50146103205780638da5cb5b1461033e578063930d4cd71461035c57806395d89b411461038c57610173565b80633f4ba83a116101305780633f4ba83a1461024c57806342842e0e146102565780635c975abb146102725780636352211e14610290578063695850fb146102c057806370a08231146102dc57610173565b806301ffc9a71461017857806306fdde03146101a8578063081812fc146101c6578063095ea7b3146101f65780631a55d0201461021257806323b872dd14610230575b600080fd5b610192600480360381019061018d9190612212565b610498565b60405161019f919061225a565b60405180910390f35b6101b061057a565b6040516101bd9190612305565b60405180910390f35b6101e060048036038101906101db919061235d565b61060c565b6040516101ed91906123cb565b60405180910390f35b610210600480360381019061020b9190612412565b610652565b005b61021a610769565b6040516102279190612461565b60405180910390f35b61024a6004803603810190610245919061247c565b61077a565b005b6102546107da565b005b610270600480360381019061026b919061247c565b6107ec565b005b61027a61080c565b604051610287919061225a565b60405180910390f35b6102aa60048036038101906102a5919061235d565b610823565b6040516102b791906123cb565b60405180910390f35b6102da60048036038101906102d59190612604565b6108a9565b005b6102f660048036038101906102f1919061264d565b610a4c565b6040516103039190612461565b60405180910390f35b610314610b03565b005b61031e610b17565b005b610328610b29565b6040516103359190612461565b60405180910390f35b610346610b2f565b60405161035391906123cb565b60405180910390f35b6103766004803603810190610371919061264d565b610b59565b6040516103839190612461565b60405180910390f35b610394610ba2565b6040516103a19190612305565b60405180910390f35b6103c460048036038101906103bf91906126a6565b610c34565b005b6103ce610c4a565b6040516103db9190612461565b60405180910390f35b6103fe60048036038101906103f99190612787565b610c50565b005b61041a6004803603810190610415919061235d565b610cb2565b6040516104279190612305565b60405180910390f35b61044a6004803603810190610445919061280a565b610cc4565b604051610457919061225a565b60405180910390f35b61047a6004803603810190610475919061264d565b610d58565b005b6104966004803603810190610491919061235d565b610ddb565b005b60007f80ac58cd000000000000000000000000000000000000000000000000000000007bffffffffffffffffffffffffffffffffffffffffffffffffffffffff1916827bffffffffffffffffffffffffffffffffffffffffffffffffffffffff1916148061056357507f5b5e139f000000000000000000000000000000000000000000000000000000007bffffffffffffffffffffffffffffffffffffffffffffffffffffffff1916827bffffffffffffffffffffffffffffffffffffffffffffffffffffffff1916145b80610573575061057282610ded565b5b9050919050565b60606000805461058990612879565b80601f01602080910402602001604051908101604052809291908181526020018280546105b590612879565b80156106025780601f106105d757610100808354040283529160200191610602565b820191906000526020600020905b8154815290600101906020018083116105e557829003601f168201915b5050505050905090565b600061061782610e57565b6004600083815260200190815260200160002060009054906101000a900473ffffffffffffffffffffffffffffffffffffffff169050919050565b600061065d82610823565b90508073ffffffffffffffffffffffffffffffffffffffff168373ffffffffffffffffffffffffffffffffffffffff16036106cd576040517f08c379a00000000000000000000000000000000000000000000000000000000081526004016106c49061291c565b60405180910390fd5b8073ffffffffffffffffffffffffffffffffffffffff166106ec610ea2565b73ffffffffffffffffffffffffffffffffffffffff16148061071b575061071a81610715610ea2565b610cc4565b5b61075a576040517f08c379a0000000000000000000000000000000000000000000000000000000008152600401610751906129ae565b60405180910390fd5b6107648383610eaa565b505050565b60006107756008610f63565b905090565b61078b610785610ea2565b82610f71565b6107ca576040517f08c379a00000000000000000000000000000000000000000000000000000000081526004016107c190612a40565b60405180910390fd5b6107d5838383611006565b505050565b6107e26112ff565b6107ea61137d565b565b61080783838360405180602001604052806000815250610c50565b505050565b6000600760009054906101000a900460ff16905090565b60008061082f836113e0565b9050600073ffffffffffffffffffffffffffffffffffffffff168173ffffffffffffffffffffffffffffffffffffffff16036108a0576040517f08c379a000000000000000000000000000000000000000000000000000000000815260040161089790612aac565b60405180910390fd5b80915050919050565b6108b161141d565b60006108bd6008610f63565b9050600954811115610904576040517f08c379a00000000000000000000000000000000000000000000000000000000081526004016108fb90612b18565b60405180910390fd5b600a54600c60003373ffffffffffffffffffffffffffffffffffffffff1673ffffffffffffffffffffffffffffffffffffffff1681526020019081526020016000205410610987576040517f08c379a000000000000000000000000000000000000000000000000000000000815260040161097e90612baa565b60405180910390fd5b6109916008611467565b61099b338261147d565b6109a5818361149b565b600b60003373ffffffffffffffffffffffffffffffffffffffff1673ffffffffffffffffffffffffffffffffffffffff16815260200190815260200160002060008154809291906109f590612bf9565b91905055503373ffffffffffffffffffffffffffffffffffffffff167f16233e86667049b083848be6f340f7853356a2130eeeae0489eacb2288b3eb2d82604051610a409190612461565b60405180910390a25050565b60008073ffffffffffffffffffffffffffffffffffffffff168273ffffffffffffffffffffffffffffffffffffffff1603610abc576040517f08c379a0000000000000000000000000000000000000000000000000000000008152600401610ab390612cb3565b60405180910390fd5b600360008373ffffffffffffffffffffffffffffffffffffffff1673ffffffffffffffffffffffffffffffffffffffff168152602001908152602001600020549050919050565b610b0b6112ff565b610b156000611508565b565b610b1f6112ff565b610b276115ce565b565b60095481565b6000600760019054906101000a900473ffffffffffffffffffffffffffffffffffffffff16905090565b6000600b60008373ffffffffffffffffffffffffffffffffffffffff1673ffffffffffffffffffffffffffffffffffffffff168152602001908152602001600020549050919050565b606060018054610bb190612879565b80601f0160208091040260200160405190810160405280929190818152602001828054610bdd90612879565b8015610c2a5780601f10610bff57610100808354040283529160200191610c2a565b820191906000526020600020905b815481529060010190602001808311610c0d57829003601f168201915b5050505050905090565b610c46610c3f610ea2565b8383611631565b5050565b600a5481565b610c61610c5b610ea2565b83610f71565b610ca0576040517f08c379a0000000000000000000000000000000000000000000000000000000008152600401610c9790612a40565b60405180910390fd5b610cac8484848461179d565b50505050565b6060610cbd826117f9565b9050919050565b6000600560008473ffffffffffffffffffffffffffffffffffffffff1673ffffffffffffffffffffffffffffffffffffffff16815260200190815260200160002060008373ffffffffffffffffffffffffffffffffffffffff1673ffffffffffffffffffffffffffffffffffffffff16815260200190815260200160002060009054906101000a900460ff16905092915050565b610d606112ff565b600073ffffffffffffffffffffffffffffffffffffffff168173ffffffffffffffffffffffffffffffffffffffff1603610dcf576040517f08c379a0000000000000000000000000000000000000000000000000000000008152600401610dc690612d45565b60405180910390fd5b610dd881611508565b50565b610de36112ff565b8060098190555050565b60007f01ffc9a7000000000000000000000000000000000000000000000000000000007bffffffffffffffffffffffffffffffffffffffffffffffffffffffff1916827bffffffffffffffffffffffffffffffffffffffffffffffffffffffff1916149050919050565b610e608161190b565b610e9f576040517f08c379a0000000000000000000000000000000000000000000000000000000008152600401610e9690612aac565b60405180910390fd5b50565b600033905090565b816004600083815260200190815260200160002060006101000a81548173ffffffffffffffffffffffffffffffffffffffff021916908373ffffffffffffffffffffffffffffffffffffffff160217905550808273ffffffffffffffffffffffffffffffffffffffff16610f1d83610823565b73ffffffffffffffffffffffffffffffffffffffff167f8c5be1e5ebec7d5bd14f71427d1e84f3dd0314c0f7b2291e5b200ac8c7c3b92560405160405180910390a45050565b600081600001549050919050565b600080610f7d83610823565b90508073ffffffffffffffffffffffffffffffffffffffff168473ffffffffffffffffffffffffffffffffffffffff161480610fbf5750610fbe8185610cc4565b5b80610ffd57508373ffffffffffffffffffffffffffffffffffffffff16610fe58461060c565b73ffffffffffffffffffffffffffffffffffffffff16145b91505092915050565b8273ffffffffffffffffffffffffffffffffffffffff1661102682610823565b73ffffffffffffffffffffffffffffffffffffffff161461107c576040517f08c379a000000000000000000000000000000000000000000000000000000000815260040161107390612dd7565b60405180910390fd5b600073ffffffffffffffffffffffffffffffffffffffff168273ffffffffffffffffffffffffffffffffffffffff16036110eb576040517f08c379a00000000000000000000000000000000000000000000000000000000081526004016110e290612e69565b60405180910390fd5b6110f8838383600161194c565b8273ffffffffffffffffffffffffffffffffffffffff1661111882610823565b73ffffffffffffffffffffffffffffffffffffffff161461116e576040517f08c379a000000000000000000000000000000000000000000000000000000000815260040161116590612dd7565b60405180910390fd5b6004600082815260200190815260200160002060006101000a81549073ffffffffffffffffffffffffffffffffffffffff02191690556001600360008573ffffffffffffffffffffffffffffffffffffffff1673ffffffffffffffffffffffffffffffffffffffff168152602001908152602001600020600082825403925050819055506001600360008473ffffffffffffffffffffffffffffffffffffffff1673ffffffffffffffffffffffffffffffffffffffff16815260200190815260200160002060008282540192505081905550816002600083815260200190815260200160002060006101000a81548173ffffffffffffffffffffffffffffffffffffffff021916908373ffffffffffffffffffffffffffffffffffffffff160217905550808273ffffffffffffffffffffffffffffffffffffffff168473ffffffffffffffffffffffffffffffffffffffff167fddf252ad1be2c89b69c2b068fc378daa952ba7f163c4a11628f55a4df523b3ef60405160405180910390a46112fa8383836001611966565b505050565b611307610ea2565b73ffffffffffffffffffffffffffffffffffffffff16611325610b2f565b73ffffffffffffffffffffffffffffffffffffffff161461137b576040517f08c379a000000000000000000000000000000000000000000000000000000000815260040161137290612ed5565b60405180910390fd5b565b61138561196c565b6000600760006101000a81548160ff0219169083151502179055507f5db9ee0a495bf2e6ff9c91a7834c1ba4fdd244a5e8aa4e537bd38aeae4b073aa6113c9610ea2565b6040516113d691906123cb565b60405180910390a1565b60006002600083815260200190815260200160002060009054906101000a900473ffffffffffffffffffffffffffffffffffffffff169050919050565b61142561080c565b15611465576040517f08c379a000000000000000000000000000000000000000000000000000000000815260040161145c90612f41565b60405180910390fd5b565b6001816000016000828254019250508190555050565b6114978282604051806020016040528060008152506119b5565b5050565b6114a48261190b565b6114e3576040517f08c379a00000000000000000000000000000000000000000000000000000000081526004016114da90612fd3565b60405180910390fd5b80600660008481526020019081526020016000209081611503919061319f565b505050565b6000600760019054906101000a900473ffffffffffffffffffffffffffffffffffffffff16905081600760016101000a81548173ffffffffffffffffffffffffffffffffffffffff021916908373ffffffffffffffffffffffffffffffffffffffff1602179055508173ffffffffffffffffffffffffffffffffffffffff168173ffffffffffffffffffffffffffffffffffffffff167f8be0079c531659141344cd1fd0a4f28419497f9722a3daafe3b4186f6b6457e060405160405180910390a35050565b6115d661141d565b6001600760006101000a81548160ff0219169083151502179055507f62e78cea01bee320cd4e420270b5ea74000d11b0c9f74754ebdbfc544b05a25861161a610ea2565b60405161162791906123cb565b60405180910390a1565b8173ffffffffffffffffffffffffffffffffffffffff168373ffffffffffffffffffffffffffffffffffffffff160361169f576040517f08c379a0000000000000000000000000000000000000000000000000000000008152600401611696906132bd565b60405180910390fd5b80600560008573ffffffffffffffffffffffffffffffffffffffff1673ffffffffffffffffffffffffffffffffffffffff16815260200190815260200160002060008473ffffffffffffffffffffffffffffffffffffffff1673ffffffffffffffffffffffffffffffffffffffff16815260200190815260200160002060006101000a81548160ff0219169083151502179055508173ffffffffffffffffffffffffffffffffffffffff168373ffffffffffffffffffffffffffffffffffffffff167f17307eab39ab6107e8899845ad3d59bd9653f200f220920489ca2b5937696c3183604051611790919061225a565b60405180910390a3505050565b6117a8848484611006565b6117b484848484611a10565b6117f3576040517f08c379a00000000000000000000000000000000000000000000000000000000081526004016117ea9061334f565b60405180910390fd5b50505050565b606061180482610e57565b600060066000848152602001908152602001600020805461182490612879565b80601f016020809104026020016040519081016040528092919081815260200182805461185090612879565b801561189d5780601f106118725761010080835404028352916020019161189d565b820191906000526020600020905b81548152906001019060200180831161188057829003601f168201915b5050505050905060006118ae611b97565b905060008151036118c3578192505050611906565b6000825111156118f85780826040516020016118e09291906133ab565b60405160208183030381529060405292505050611906565b61190184611bb7565b925050505b919050565b60008073ffffffffffffffffffffffffffffffffffffffff1661192d836113e0565b73ffffffffffffffffffffffffffffffffffffffff1614159050919050565b61195461141d565b61196084848484611c1f565b50505050565b50505050565b61197461080c565b6119b3576040517f08c379a00000000000000000000000000000000000000000000000000000000081526004016119aa9061341b565b60405180910390fd5b565b6119bf8383611d45565b6119cc6000848484611a10565b611a0b576040517f08c379a0000000000000000000000000000000000000000000000000000000008152600401611a029061334f565b60405180910390fd5b505050565b6000611a318473ffffffffffffffffffffffffffffffffffffffff16611f62565b15611b8a578373ffffffffffffffffffffffffffffffffffffffff1663150b7a02611a5a610ea2565b8786866040518563ffffffff1660e01b8152600401611a7c9493929190613490565b6020604051808303816000875af1925050508015611ab857506040513d601f19601f82011682018060405250810190611ab591906134f1565b60015b611b3a573d8060008114611ae8576040519150601f19603f3d011682016040523d82523d6000602084013e611aed565b606091505b506000815103611b32576040517f08c379a0000000000000000000000000000000000000000000000000000000008152600401611b299061334f565b60405180910390fd5b805181602001fd5b63150b7a0260e01b7bffffffffffffffffffffffffffffffffffffffffffffffffffffffff1916817bffffffffffffffffffffffffffffffffffffffffffffffffffffffff191614915050611b8f565b600190505b949350505050565b60606040518060600160405280602d815260200161368e602d9139905090565b6060611bc282610e57565b6000611bcc611b97565b90506000815111611bec5760405180602001604052806000815250611c17565b80611bf684611f85565b604051602001611c079291906133ab565b6040516020818303038152906040525b915050919050565b6001811115611d3f57600073ffffffffffffffffffffffffffffffffffffffff168473ffffffffffffffffffffffffffffffffffffffff1614611cb35780600360008673ffffffffffffffffffffffffffffffffffffffff1673ffffffffffffffffffffffffffffffffffffffff1681526020019081526020016000206000828254611cab919061351e565b925050819055505b600073ffffffffffffffffffffffffffffffffffffffff168373ffffffffffffffffffffffffffffffffffffffff1614611d3e5780600360008573ffffffffffffffffffffffffffffffffffffffff1673ffffffffffffffffffffffffffffffffffffffff1681526020019081526020016000206000828254611d369190613552565b925050819055505b5b50505050565b600073ffffffffffffffffffffffffffffffffffffffff168273ffffffffffffffffffffffffffffffffffffffff1603611db4576040517f08c379a0000000000000000000000000000000000000000000000000000000008152600401611dab906135d2565b60405180910390fd5b611dbd8161190b565b15611dfd576040517f08c379a0000000000000000000000000000000000000000000000000000000008152600401611df49061363e565b60405180910390fd5b611e0b60008383600161194c565b611e148161190b565b15611e54576040517f08c379a0000000000000000000000000000000000000000000000000000000008152600401611e4b9061363e565b60405180910390fd5b6001600360008473ffffffffffffffffffffffffffffffffffffffff1673ffffffffffffffffffffffffffffffffffffffff16815260200190815260200160002060008282540192505081905550816002600083815260200190815260200160002060006101000a81548173ffffffffffffffffffffffffffffffffffffffff021916908373ffffffffffffffffffffffffffffffffffffffff160217905550808273ffffffffffffffffffffffffffffffffffffffff16600073ffffffffffffffffffffffffffffffffffffffff167fddf252ad1be2c89b69c2b068fc378daa952ba7f163c4a11628f55a4df523b3ef60405160405180910390a4611f5e600083836001611966565b5050565b6000808273ffffffffffffffffffffffffffffffffffffffff163b119050919050565b606060006001611f9484612053565b01905060008167ffffffffffffffff811115611fb357611fb26124d9565b5b6040519080825280601f01601f191660200182016040528015611fe55781602001600182028036833780820191505090505b509050600082602001820190505b600115612048578080600190039150507f3031323334353637383961626364656600000000000000000000000000000000600a86061a8153600a858161203c5761203b61365e565b5b04945060008503611ff3575b819350505050919050565b600080600090507a184f03e93ff9f4daa797ed6e38ed64bf6a1f01000000000000000083106120b1577a184f03e93ff9f4daa797ed6e38ed64bf6a1f01000000000000000083816120a7576120a661365e565b5b0492506040810190505b6d04ee2d6d415b85acef810000000083106120ee576d04ee2d6d415b85acef810000000083816120e4576120e361365e565b5b0492506020810190505b662386f26fc10000831061211d57662386f26fc1000083816121135761211261365e565b5b0492506010810190505b6305f5e1008310612146576305f5e100838161213c5761213b61365e565b5b0492506008810190505b612710831061216b5761271083816121615761216061365e565b5b0492506004810190505b6064831061218e57606483816121845761218361365e565b5b0492506002810190505b600a831061219d576001810190505b80915050919050565b6000604051905090565b600080fd5b600080fd5b60007fffffffff0000000000000000000000000000000000000000000000000000000082169050919050565b6121ef816121ba565b81146121fa57600080fd5b50565b60008135905061220c816121e6565b92915050565b600060208284031215612228576122276121b0565b5b6000612236848285016121fd565b91505092915050565b60008115159050919050565b6122548161223f565b82525050565b600060208201905061226f600083018461224b565b92915050565b600081519050919050565b600082825260208201905092915050565b60005b838110156122af578082015181840152602081019050612294565b60008484015250505050565b6000601f19601f8301169050919050565b60006122d782612275565b6122e18185612280565b93506122f1818560208601612291565b6122fa816122bb565b840191505092915050565b6000602082019050818103600083015261231f81846122cc565b905092915050565b6000819050919050565b61233a81612327565b811461234557600080fd5b50565b60008135905061235781612331565b92915050565b600060208284031215612373576123726121b0565b5b600061238184828501612348565b91505092915050565b600073ffffffffffffffffffffffffffffffffffffffff82169050919050565b60006123b58261238a565b9050919050565b6123c5816123aa565b82525050565b60006020820190506123e060008301846123bc565b92915050565b6123ef816123aa565b81146123fa57600080fd5b50565b60008135905061240c816123e6565b92915050565b60008060408385031215612429576124286121b0565b5b6000612437858286016123fd565b925050602061244885828601612348565b9150509250929050565b61245b81612327565b82525050565b60006020820190506124766000830184612452565b92915050565b600080600060608486031215612495576124946121b0565b5b60006124a3868287016123fd565b93505060206124b4868287016123fd565b92505060406124c586828701612348565b9150509250925092565b600080fd5b600080fd5b7f4e487b7100000000000000000000000000000000000000000000000000000000600052604160045260246000fd5b612511826122bb565b810181811067ffffffffffffffff821117156125305761252f6124d9565b5b80604052505050565b60006125436121a6565b905061254f8282612508565b919050565b600067ffffffffffffffff82111561256f5761256e6124d9565b5b612578826122bb565b9050602081019050919050565b82818337600083830152505050565b60006125a76125a284612554565b612539565b9050828152602081018484840111156125c3576125c26124d4565b5b6125ce848285612585565b509392505050565b600082601f8301126125eb576125ea6124cf565b5b81356125fb848260208601612594565b91505092915050565b60006020828403121561261a576126196121b0565b5b600082013567ffffffffffffffff811115612638576126376121b5565b5b612644848285016125d6565b91505092915050565b600060208284031215612663576126626121b0565b5b6000612671848285016123fd565b91505092915050565b6126838161223f565b811461268e57600080fd5b50565b6000813590506126a08161267a565b92915050565b600080604083850312156126bd576126bc6121b0565b5b60006126cb858286016123fd565b92505060206126dc85828601612691565b9150509250929050565b600067ffffffffffffffff821115612701576127006124d9565b5b61270a826122bb565b9050602081019050919050565b600061272a612725846126e6565b612539565b905082815260208101848484011115612746576127456124d4565b5b612751848285612585565b509392505050565b600082601f83011261276e5761276d6124cf565b5b813561277e848260208601612717565b91505092915050565b600080600080608085870312156127a1576127a06121b0565b5b60006127af878288016123fd565b94505060206127c0878288016123fd565b93505060406127d187828801612348565b925050606085013567ffffffffffffffff8111156127f2576127f16121b5565b5b6127fe87828801612759565b91505092959194509250565b60008060408385031215612821576128206121b0565b5b600061282f858286016123fd565b9250506020612840858286016123fd565b9150509250929050565b7f4e487b7100000000000000000000000000000000000000000000000000000000600052602260045260246000fd5b6000600282049050600182168061289157607f821691505b6020821081036128a4576128a361284a565b5b50919050565b7f4552433732313a20617070726f76616c20746f2063757272656e74206f776e6560008201527f7200000000000000000000000000000000000000000000000000000000000000602082015250565b6000612906602183612280565b9150612911826128aa565b604082019050919050565b60006020820190508181036000830152612935816128f9565b9050919050565b7f4552433732313a20617070726f76652063616c6c6572206973206e6f7420746f60008201527f6b656e206f776e6572206f7220617070726f76656420666f7220616c6c000000602082015250565b6000612998603d83612280565b91506129a38261293c565b604082019050919050565b600060208201905081810360008301526129c78161298b565b9050919050565b7f4552433732313a2063616c6c6572206973206e6f7420746f6b656e206f776e6560008201527f72206f7220617070726f76656400000000000000000000000000000000000000602082015250565b6000612a2a602d83612280565b9150612a35826129ce565b604082019050919050565b60006020820190508181036000830152612a5981612a1d565b9050919050565b7f4552433732313a20696e76616c696420746f6b656e2049440000000000000000600082015250565b6000612a96601883612280565b9150612aa182612a60565b602082019050919050565b60006020820190508181036000830152612ac581612a89565b9050919050565b7f536f7272792c20616c6c204e4654732068617665206265656e206d696e746564600082015250565b6000612b02602083612280565b9150612b0d82612acc565b602082019050919050565b60006020820190508181036000830152612b3181612af5565b9050919050565b7f536f7272792c20796f7520616c7265616479206d696e74656420616c6c204e4660008201527f547320796f752061726520616c6c6f77656420746f206d696e74000000000000602082015250565b6000612b94603a83612280565b9150612b9f82612b38565b604082019050919050565b60006020820190508181036000830152612bc381612b87565b9050919050565b7f4e487b7100000000000000000000000000000000000000000000000000000000600052601160045260246000fd5b6000612c0482612327565b91507fffffffffffffffffffffffffffffffffffffffffffffffffffffffffffffffff8203612c3657612c35612bca565b5b600182019050919050565b7f4552433732313a2061646472657373207a65726f206973206e6f74206120766160008201527f6c6964206f776e65720000000000000000000000000000000000000000000000602082015250565b6000612c9d602983612280565b9150612ca882612c41565b604082019050919050565b60006020820190508181036000830152612ccc81612c90565b9050919050565b7f4f776e61626c653a206e6577206f776e657220697320746865207a65726f206160008201527f6464726573730000000000000000000000000000000000000000000000000000602082015250565b6000612d2f602683612280565b9150612d3a82612cd3565b604082019050919050565b60006020820190508181036000830152612d5e81612d22565b9050919050565b7f4552433732313a207472616e736665722066726f6d20696e636f72726563742060008201527f6f776e6572000000000000000000000000000000000000000000000000000000602082015250565b6000612dc1602583612280565b9150612dcc82612d65565b604082019050919050565b60006020820190508181036000830152612df081612db4565b9050919050565b7f4552433732313a207472616e7366657220746f20746865207a65726f2061646460008201527f7265737300000000000000000000000000000000000000000000000000000000602082015250565b6000612e53602483612280565b9150612e5e82612df7565b604082019050919050565b60006020820190508181036000830152612e8281612e46565b9050919050565b7f4f776e61626c653a2063616c6c6572206973206e6f7420746865206f776e6572600082015250565b6000612ebf602083612280565b9150612eca82612e89565b602082019050919050565b60006020820190508181036000830152612eee81612eb2565b9050919050565b7f5061757361626c653a2070617573656400000000000000000000000000000000600082015250565b6000612f2b601083612280565b9150612f3682612ef5565b602082019050919050565b60006020820190508181036000830152612f5a81612f1e565b9050919050565b7f45524337323155524953746f726167653a2055524920736574206f66206e6f6e60008201527f6578697374656e7420746f6b656e000000000000000000000000000000000000602082015250565b6000612fbd602e83612280565b9150612fc882612f61565b604082019050919050565b60006020820190508181036000830152612fec81612fb0565b9050919050565b60008190508160005260206000209050919050565b60006020601f8301049050919050565b600082821b905092915050565b6000600883026130557fffffffffffffffffffffffffffffffffffffffffffffffffffffffffffffffff82613018565b61305f8683613018565b95508019841693508086168417925050509392505050565b6000819050919050565b600061309c61309761309284612327565b613077565b612327565b9050919050565b6000819050919050565b6130b683613081565b6130ca6130c2826130a3565b848454613025565b825550505050565b600090565b6130df6130d2565b6130ea8184846130ad565b505050565b5b8181101561310e576131036000826130d7565b6001810190506130f0565b5050565b601f8211156131535761312481612ff3565b61312d84613008565b8101602085101561313c578190505b61315061314885613008565b8301826130ef565b50505b505050565b600082821c905092915050565b600061317660001984600802613158565b1980831691505092915050565b600061318f8383613165565b9150826002028217905092915050565b6131a882612275565b67ffffffffffffffff8111156131c1576131c06124d9565b5b6131cb8254612879565b6131d6828285613112565b600060209050601f83116001811461320957600084156131f7578287015190505b6132018582613183565b865550613269565b601f19841661321786612ff3565b60005b8281101561323f5784890151825560018201915060208501945060208101905061321a565b8683101561325c5784890151613258601f891682613165565b8355505b6001600288020188555050505b505050505050565b7f4552433732313a20617070726f766520746f2063616c6c657200000000000000600082015250565b60006132a7601983612280565b91506132b282613271565b602082019050919050565b600060208201905081810360008301526132d68161329a565b9050919050565b7f4552433732313a207472616e7366657220746f206e6f6e20455243373231526560008201527f63656976657220696d706c656d656e7465720000000000000000000000000000602082015250565b6000613339603283612280565b9150613344826132dd565b604082019050919050565b600060208201905081810360008301526133688161332c565b9050919050565b600081905092915050565b600061338582612275565b61338f818561336f565b935061339f818560208601612291565b80840191505092915050565b60006133b7828561337a565b91506133c3828461337a565b91508190509392505050565b7f5061757361626c653a206e6f7420706175736564000000000000000000000000600082015250565b6000613405601483612280565b9150613410826133cf565b602082019050919050565b60006020820190508181036000830152613434816133f8565b9050919050565b600081519050919050565b600082825260208201905092915050565b60006134628261343b565b61346c8185613446565b935061347c818560208601612291565b613485816122bb565b840191505092915050565b60006080820190506134a560008301876123bc565b6134b260208301866123bc565b6134bf6040830185612452565b81810360608301526134d18184613457565b905095945050505050565b6000815190506134eb816121e6565b92915050565b600060208284031215613507576135066121b0565b5b6000613515848285016134dc565b91505092915050565b600061352982612327565b915061353483612327565b925082820390508181111561354c5761354b612bca565b5b92915050565b600061355d82612327565b915061356883612327565b92508282019050808211156135805761357f612bca565b5b92915050565b7f4552433732313a206d696e7420746f20746865207a65726f2061646472657373600082015250565b60006135bc602083612280565b91506135c782613586565b602082019050919050565b600060208201905081810360008301526135eb816135af565b9050919050565b7f4552433732313a20746f6b656e20616c7265616479206d696e74656400000000600082015250565b6000613628601c83612280565b9150613633826135f2565b602082019050919050565b600060208201905081810360008301526136578161361b565b9050919050565b7f4e487b7100000000000000000000000000000000000000000000000000000000600052601260045260246000fdfe68747470733a2f2f66696e616c2d70726f6a6563742d61752e696e667572612d697066732e696f2f697066732fa26469706673582212206168467715eec0e1e71e628beeb8a69d2504bfeb103714a4aef472bef6987e4264736f6c63430008110033",
    "linkReferences": {},
    "deployedLinkReferences": {}
}